{
  "_format": "hh-sol-artifact-1",
  "contractName": "SampleToken",
  "sourceName": "contracts/SampleToken.sol",
  "abi": [
    {
      "inputs": [
        {
          "internalType": "string",
          "name": "name",
          "type": "string"
        },
        {
          "internalType": "string",
          "name": "symbol",
          "type": "string"
        },
        {
          "internalType": "uint256",
          "name": "cap",
          "type": "uint256"
        },
        {
          "internalType": "uint256",
          "name": "initialSupply",
          "type": "uint256"
        }
      ],
      "stateMutability": "nonpayable",
      "type": "constructor"
    },
    {
      "anonymous": false,
      "inputs": [
        {
          "indexed": true,
          "internalType": "address",
          "name": "owner",
          "type": "address"
        },
        {
          "indexed": true,
          "internalType": "address",
          "name": "spender",
          "type": "address"
        },
        {
          "indexed": false,
          "internalType": "uint256",
          "name": "value",
          "type": "uint256"
        }
      ],
      "name": "Approval",
      "type": "event"
    },
    {
      "anonymous": false,
      "inputs": [
        {
          "indexed": false,
          "internalType": "address",
          "name": "account",
          "type": "address"
        }
      ],
      "name": "Paused",
      "type": "event"
    },
    {
      "anonymous": false,
      "inputs": [
        {
          "indexed": true,
          "internalType": "bytes32",
          "name": "role",
          "type": "bytes32"
        },
        {
          "indexed": true,
          "internalType": "bytes32",
          "name": "previousAdminRole",
          "type": "bytes32"
        },
        {
          "indexed": true,
          "internalType": "bytes32",
          "name": "newAdminRole",
          "type": "bytes32"
        }
      ],
      "name": "RoleAdminChanged",
      "type": "event"
    },
    {
      "anonymous": false,
      "inputs": [
        {
          "indexed": true,
          "internalType": "bytes32",
          "name": "role",
          "type": "bytes32"
        },
        {
          "indexed": true,
          "internalType": "address",
          "name": "account",
          "type": "address"
        },
        {
          "indexed": true,
          "internalType": "address",
          "name": "sender",
          "type": "address"
        }
      ],
      "name": "RoleGranted",
      "type": "event"
    },
    {
      "anonymous": false,
      "inputs": [
        {
          "indexed": true,
          "internalType": "bytes32",
          "name": "role",
          "type": "bytes32"
        },
        {
          "indexed": true,
          "internalType": "address",
          "name": "account",
          "type": "address"
        },
        {
          "indexed": true,
          "internalType": "address",
          "name": "sender",
          "type": "address"
        }
      ],
      "name": "RoleRevoked",
      "type": "event"
    },
    {
      "anonymous": false,
      "inputs": [
        {
          "indexed": true,
          "internalType": "address",
          "name": "account",
          "type": "address"
        }
      ],
      "name": "TokenPaused",
      "type": "event"
    },
    {
      "anonymous": false,
      "inputs": [
        {
          "indexed": true,
          "internalType": "address",
          "name": "account",
          "type": "address"
        }
      ],
      "name": "TokenUnpaused",
      "type": "event"
    },
    {
      "anonymous": false,
      "inputs": [
        {
          "indexed": true,
          "internalType": "address",
          "name": "from",
          "type": "address"
        },
        {
          "indexed": false,
          "internalType": "uint256",
          "name": "amount",
          "type": "uint256"
        }
      ],
      "name": "TokensBurned",
      "type": "event"
    },
    {
      "anonymous": false,
      "inputs": [
        {
          "indexed": true,
          "internalType": "address",
          "name": "to",
          "type": "address"
        },
        {
          "indexed": false,
          "internalType": "uint256",
          "name": "amount",
          "type": "uint256"
        }
      ],
      "name": "TokensMinted",
      "type": "event"
    },
    {
      "anonymous": false,
      "inputs": [
        {
          "indexed": true,
          "internalType": "address",
          "name": "from",
          "type": "address"
        },
        {
          "indexed": true,
          "internalType": "address",
          "name": "to",
          "type": "address"
        },
        {
          "indexed": false,
          "internalType": "uint256",
          "name": "value",
          "type": "uint256"
        }
      ],
      "name": "Transfer",
      "type": "event"
    },
    {
      "anonymous": false,
      "inputs": [
        {
          "indexed": false,
          "internalType": "address",
          "name": "account",
          "type": "address"
        }
      ],
      "name": "Unpaused",
      "type": "event"
    },
    {
      "inputs": [],
      "name": "DEFAULT_ADMIN_ROLE",
      "outputs": [
        {
          "internalType": "bytes32",
          "name": "",
          "type": "bytes32"
        }
      ],
      "stateMutability": "view",
      "type": "function"
    },
    {
      "inputs": [],
      "name": "MINTER_ROLE",
      "outputs": [
        {
          "internalType": "bytes32",
          "name": "",
          "type": "bytes32"
        }
      ],
      "stateMutability": "view",
      "type": "function"
    },
    {
      "inputs": [],
      "name": "PAUSER_ROLE",
      "outputs": [
        {
          "internalType": "bytes32",
          "name": "",
          "type": "bytes32"
        }
      ],
      "stateMutability": "view",
      "type": "function"
    },
    {
      "inputs": [
        {
          "internalType": "address",
          "name": "owner",
          "type": "address"
        },
        {
          "internalType": "address",
          "name": "spender",
          "type": "address"
        }
      ],
      "name": "allowance",
      "outputs": [
        {
          "internalType": "uint256",
          "name": "",
          "type": "uint256"
        }
      ],
      "stateMutability": "view",
      "type": "function"
    },
    {
      "inputs": [
        {
          "internalType": "address",
          "name": "spender",
          "type": "address"
        },
        {
          "internalType": "uint256",
          "name": "amount",
          "type": "uint256"
        }
      ],
      "name": "approve",
      "outputs": [
        {
          "internalType": "bool",
          "name": "",
          "type": "bool"
        }
      ],
      "stateMutability": "nonpayable",
      "type": "function"
    },
    {
      "inputs": [
        {
          "internalType": "address",
          "name": "account",
          "type": "address"
        }
      ],
      "name": "balanceOf",
      "outputs": [
        {
          "internalType": "uint256",
          "name": "",
          "type": "uint256"
        }
      ],
      "stateMutability": "view",
      "type": "function"
    },
    {
      "inputs": [
        {
          "internalType": "uint256",
          "name": "amount",
          "type": "uint256"
        }
      ],
      "name": "burn",
      "outputs": [],
      "stateMutability": "nonpayable",
      "type": "function"
    },
    {
      "inputs": [
        {
          "internalType": "address",
          "name": "account",
          "type": "address"
        },
        {
          "internalType": "uint256",
          "name": "amount",
          "type": "uint256"
        }
      ],
      "name": "burnFrom",
      "outputs": [],
      "stateMutability": "nonpayable",
      "type": "function"
    },
    {
      "inputs": [],
      "name": "cap",
      "outputs": [
        {
          "internalType": "uint256",
          "name": "",
          "type": "uint256"
        }
      ],
      "stateMutability": "view",
      "type": "function"
    },
    {
      "inputs": [],
      "name": "decimals",
      "outputs": [
        {
          "internalType": "uint8",
          "name": "",
          "type": "uint8"
        }
      ],
      "stateMutability": "view",
      "type": "function"
    },
    {
      "inputs": [
        {
          "internalType": "address",
          "name": "spender",
          "type": "address"
        },
        {
          "internalType": "uint256",
          "name": "subtractedValue",
          "type": "uint256"
        }
      ],
      "name": "decreaseAllowance",
      "outputs": [
        {
          "internalType": "bool",
          "name": "",
          "type": "bool"
        }
      ],
      "stateMutability": "nonpayable",
      "type": "function"
    },
    {
      "inputs": [
        {
          "internalType": "bytes32",
          "name": "role",
          "type": "bytes32"
        }
      ],
      "name": "getRoleAdmin",
      "outputs": [
        {
          "internalType": "bytes32",
          "name": "",
          "type": "bytes32"
        }
      ],
      "stateMutability": "view",
      "type": "function"
    },
    {
      "inputs": [
        {
          "internalType": "bytes32",
          "name": "role",
          "type": "bytes32"
        },
        {
          "internalType": "address",
          "name": "account",
          "type": "address"
        }
      ],
      "name": "grantRole",
      "outputs": [],
      "stateMutability": "nonpayable",
      "type": "function"
    },
    {
      "inputs": [
        {
          "internalType": "bytes32",
          "name": "role",
          "type": "bytes32"
        },
        {
          "internalType": "address",
          "name": "account",
          "type": "address"
        }
      ],
      "name": "hasRole",
      "outputs": [
        {
          "internalType": "bool",
          "name": "",
          "type": "bool"
        }
      ],
      "stateMutability": "view",
      "type": "function"
    },
    {
      "inputs": [
        {
          "internalType": "address",
          "name": "spender",
          "type": "address"
        },
        {
          "internalType": "uint256",
          "name": "addedValue",
          "type": "uint256"
        }
      ],
      "name": "increaseAllowance",
      "outputs": [
        {
          "internalType": "bool",
          "name": "",
          "type": "bool"
        }
      ],
      "stateMutability": "nonpayable",
      "type": "function"
    },
    {
      "inputs": [
        {
          "internalType": "address",
          "name": "to",
          "type": "address"
        },
        {
          "internalType": "uint256",
          "name": "amount",
          "type": "uint256"
        }
      ],
      "name": "mint",
      "outputs": [],
      "stateMutability": "nonpayable",
      "type": "function"
    },
    {
      "inputs": [],
      "name": "name",
      "outputs": [
        {
          "internalType": "string",
          "name": "",
          "type": "string"
        }
      ],
      "stateMutability": "view",
      "type": "function"
    },
    {
      "inputs": [],
      "name": "pause",
      "outputs": [],
      "stateMutability": "nonpayable",
      "type": "function"
    },
    {
      "inputs": [],
      "name": "paused",
      "outputs": [
        {
          "internalType": "bool",
          "name": "",
          "type": "bool"
        }
      ],
      "stateMutability": "view",
      "type": "function"
    },
    {
      "inputs": [
        {
          "internalType": "bytes32",
          "name": "role",
          "type": "bytes32"
        },
        {
          "internalType": "address",
          "name": "account",
          "type": "address"
        }
      ],
      "name": "renounceRole",
      "outputs": [],
      "stateMutability": "nonpayable",
      "type": "function"
    },
    {
      "inputs": [
        {
          "internalType": "bytes32",
          "name": "role",
          "type": "bytes32"
        },
        {
          "internalType": "address",
          "name": "account",
          "type": "address"
        }
      ],
      "name": "revokeRole",
      "outputs": [],
      "stateMutability": "nonpayable",
      "type": "function"
    },
    {
      "inputs": [
        {
          "internalType": "bytes4",
          "name": "interfaceId",
          "type": "bytes4"
        }
      ],
      "name": "supportsInterface",
      "outputs": [
        {
          "internalType": "bool",
          "name": "",
          "type": "bool"
        }
      ],
      "stateMutability": "view",
      "type": "function"
    },
    {
      "inputs": [],
      "name": "symbol",
      "outputs": [
        {
          "internalType": "string",
          "name": "",
          "type": "string"
        }
      ],
      "stateMutability": "view",
      "type": "function"
    },
    {
      "inputs": [],
      "name": "totalSupply",
      "outputs": [
        {
          "internalType": "uint256",
          "name": "",
          "type": "uint256"
        }
      ],
      "stateMutability": "view",
      "type": "function"
    },
    {
      "inputs": [
        {
          "internalType": "address",
          "name": "to",
          "type": "address"
        },
        {
          "internalType": "uint256",
          "name": "amount",
          "type": "uint256"
        }
      ],
      "name": "transfer",
      "outputs": [
        {
          "internalType": "bool",
          "name": "",
          "type": "bool"
        }
      ],
      "stateMutability": "nonpayable",
      "type": "function"
    },
    {
      "inputs": [
        {
          "internalType": "address",
          "name": "from",
          "type": "address"
        },
        {
          "internalType": "address",
          "name": "to",
          "type": "address"
        },
        {
          "internalType": "uint256",
          "name": "amount",
          "type": "uint256"
        }
      ],
      "name": "transferFrom",
      "outputs": [
        {
          "internalType": "bool",
          "name": "",
          "type": "bool"
        }
      ],
      "stateMutability": "nonpayable",
      "type": "function"
    },
    {
      "inputs": [],
      "name": "unpause",
      "outputs": [],
      "stateMutability": "nonpayable",
      "type": "function"
    }
  ],
  "bytecode": "0x60a06040523480156200001157600080fd5b5060405162003ac438038062003ac48339818101604052810190620000379190620007ea565b81848481600390816200004b919062000adb565b5080600490816200005d919062000adb565b50505060008111620000a6576040517f08c379a00000000000000000000000000000000000000000000000000000000081526004016200009d9062000c23565b60405180910390fd5b8060808181525050506000600560006101000a81548160ff021916908315150217905550620000df6000801b33620001f560201b60201c565b620001117f9f2df0fed2c77648de5860a4cc508cd0818c85b8b8a1ab4ceeef8d981c8956a633620001f560201b60201c565b620001437f65d7a28e3265b37a6474929f336521b332c1681b933f6cb9f3376673440d862a33620001f560201b60201c565b8181111562000189576040517f08c379a0000000000000000000000000000000000000000000000000000000008152600401620001809062000c95565b60405180910390fd5b6200019b3382620002e760201b60201c565b3373ffffffffffffffffffffffffffffffffffffffff167f3f2c9d57c068687834f0de942a9babb9e5acab57d516d3480a3c16ee165a427382604051620001e3919062000cc8565b60405180910390a25050505062000ecb565b620002078282620002fd60201b60201c565b620002e35760016006600084815260200190815260200160002060000160008373ffffffffffffffffffffffffffffffffffffffff1673ffffffffffffffffffffffffffffffffffffffff16815260200190815260200160002060006101000a81548160ff021916908315150217905550620002886200036860201b60201c565b73ffffffffffffffffffffffffffffffffffffffff168173ffffffffffffffffffffffffffffffffffffffff16837f2f8788117e7eff1d82e926ec794901d17c78024a50270940304540a733656f0d60405160405180910390a45b5050565b620002f982826200037060201b60201c565b5050565b60006006600084815260200190815260200160002060000160008373ffffffffffffffffffffffffffffffffffffffff1673ffffffffffffffffffffffffffffffffffffffff16815260200190815260200160002060009054906101000a900460ff16905092915050565b600033905090565b62000380620003f760201b60201c565b81620003916200040160201b60201c565b6200039d919062000d14565b1115620003e1576040517f08c379a0000000000000000000000000000000000000000000000000000000008152600401620003d89062000d9f565b60405180910390fd5b620003f382826200040b60201b60201c565b5050565b6000608051905090565b6000600254905090565b600073ffffffffffffffffffffffffffffffffffffffff168273ffffffffffffffffffffffffffffffffffffffff16036200047d576040517f08c379a0000000000000000000000000000000000000000000000000000000008152600401620004749062000e11565b60405180910390fd5b62000491600083836200057860201b60201c565b8060026000828254620004a5919062000d14565b92505081905550806000808473ffffffffffffffffffffffffffffffffffffffff1673ffffffffffffffffffffffffffffffffffffffff168152602001908152602001600020600082825401925050819055508173ffffffffffffffffffffffffffffffffffffffff16600073ffffffffffffffffffffffffffffffffffffffff167fddf252ad1be2c89b69c2b068fc378daa952ba7f163c4a11628f55a4df523b3ef8360405162000558919062000cc8565b60405180910390a362000574600083836200059060201b60201c565b5050565b6200058b8383836200059560201b60201c565b505050565b505050565b620005a88383836200060060201b60201c565b620005b86200060560201b60201c565b15620005fb576040517f08c379a0000000000000000000000000000000000000000000000000000000008152600401620005f29062000ea9565b60405180910390fd5b505050565b505050565b6000600560009054906101000a900460ff16905090565b6000604051905090565b600080fd5b600080fd5b600080fd5b600080fd5b6000601f19601f8301169050919050565b7f4e487b7100000000000000000000000000000000000000000000000000000000600052604160045260246000fd5b62000685826200063a565b810181811067ffffffffffffffff82111715620006a757620006a66200064b565b5b80604052505050565b6000620006bc6200061c565b9050620006ca82826200067a565b919050565b600067ffffffffffffffff821115620006ed57620006ec6200064b565b5b620006f8826200063a565b9050602081019050919050565b60005b838110156200072557808201518184015260208101905062000708565b60008484015250505050565b6000620007486200074284620006cf565b620006b0565b90508281526020810184848401111562000767576200076662000635565b5b6200077484828562000705565b509392505050565b600082601f83011262000794576200079362000630565b5b8151620007a684826020860162000731565b91505092915050565b6000819050919050565b620007c481620007af565b8114620007d057600080fd5b50565b600081519050620007e481620007b9565b92915050565b6000806000806080858703121562000807576200080662000626565b5b600085015167ffffffffffffffff8111156200082857620008276200062b565b5b62000836878288016200077c565b945050602085015167ffffffffffffffff8111156200085a57620008596200062b565b5b62000868878288016200077c565b93505060406200087b87828801620007d3565b92505060606200088e87828801620007d3565b91505092959194509250565b600081519050919050565b7f4e487b7100000000000000000000000000000000000000000000000000000000600052602260045260246000fd5b60006002820490506001821680620008ed57607f821691505b602082108103620009035762000902620008a5565b5b50919050565b60008190508160005260206000209050919050565b60006020601f8301049050919050565b600082821b905092915050565b6000600883026200096d7fffffffffffffffffffffffffffffffffffffffffffffffffffffffffffffffff826200092e565b6200097986836200092e565b95508019841693508086168417925050509392505050565b6000819050919050565b6000620009bc620009b6620009b084620007af565b62000991565b620007af565b9050919050565b6000819050919050565b620009d8836200099b565b620009f0620009e782620009c3565b8484546200093b565b825550505050565b600090565b62000a07620009f8565b62000a14818484620009cd565b505050565b5b8181101562000a3c5762000a30600082620009fd565b60018101905062000a1a565b5050565b601f82111562000a8b5762000a558162000909565b62000a60846200091e565b8101602085101562000a70578190505b62000a8862000a7f856200091e565b83018262000a19565b50505b505050565b600082821c905092915050565b600062000ab06000198460080262000a90565b1980831691505092915050565b600062000acb838362000a9d565b9150826002028217905092915050565b62000ae6826200089a565b67ffffffffffffffff81111562000b025762000b016200064b565b5b62000b0e8254620008d4565b62000b1b82828562000a40565b600060209050601f83116001811462000b53576000841562000b3e578287015190505b62000b4a858262000abd565b86555062000bba565b601f19841662000b638662000909565b60005b8281101562000b8d5784890151825560018201915060208501945060208101905062000b66565b8683101562000bad578489015162000ba9601f89168262000a9d565b8355505b6001600288020188555050505b505050505050565b600082825260208201905092915050565b7f45524332304361707065643a2063617020697320300000000000000000000000600082015250565b600062000c0b60158362000bc2565b915062000c188262000bd3565b602082019050919050565b6000602082019050818103600083015262000c3e8162000bfc565b9050919050565b7f496e697469616c20737570706c79206578636565647320636170000000000000600082015250565b600062000c7d601a8362000bc2565b915062000c8a8262000c45565b602082019050919050565b6000602082019050818103600083015262000cb08162000c6e565b9050919050565b62000cc281620007af565b82525050565b600060208201905062000cdf600083018462000cb7565b92915050565b7f4e487b7100000000000000000000000000000000000000000000000000000000600052601160045260246000fd5b600062000d2182620007af565b915062000d2e83620007af565b925082820190508082111562000d495762000d4862000ce5565b5b92915050565b7f45524332304361707065643a2063617020657863656564656400000000000000600082015250565b600062000d8760198362000bc2565b915062000d948262000d4f565b602082019050919050565b6000602082019050818103600083015262000dba8162000d78565b9050919050565b7f45524332303a206d696e7420746f20746865207a65726f206164647265737300600082015250565b600062000df9601f8362000bc2565b915062000e068262000dc1565b602082019050919050565b6000602082019050818103600083015262000e2c8162000dea565b9050919050565b7f45524332305061757361626c653a20746f6b656e207472616e7366657220776860008201527f696c652070617573656400000000000000000000000000000000000000000000602082015250565b600062000e91602a8362000bc2565b915062000e9e8262000e33565b604082019050919050565b6000602082019050818103600083015262000ec48162000e82565b9050919050565b608051612bdd62000ee7600039600061070e0152612bdd6000f3fe608060405234801561001057600080fd5b50600436106101a95760003560e01c806342966c68116100f9578063a217fddf11610097578063d539139311610071578063d5391393146104d0578063d547741f146104ee578063dd62ed3e1461050a578063e63ab1e91461053a576101a9565b8063a217fddf14610452578063a457c2d714610470578063a9059cbb146104a0576101a9565b806379cc6790116100d357806379cc6790146103de5780638456cb59146103fa57806391d148541461040457806395d89b4114610434576101a9565b806342966c68146103745780635c975abb1461039057806370a08231146103ae576101a9565b80632f2ff15d1161016657806336568abe1161014057806336568abe14610302578063395093511461031e5780633f4ba83a1461034e57806340c10f1914610358576101a9565b80632f2ff15d146102aa578063313ce567146102c6578063355274ea146102e4576101a9565b806301ffc9a7146101ae57806306fdde03146101de578063095ea7b3146101fc57806318160ddd1461022c57806323b872dd1461024a578063248a9ca31461027a575b600080fd5b6101c860048036038101906101c39190611ca3565b610558565b6040516101d59190611ceb565b60405180910390f35b6101e66105d2565b6040516101f39190611d96565b60405180910390f35b61021660048036038101906102119190611e4c565b610664565b6040516102239190611ceb565b60405180910390f35b610234610687565b6040516102419190611e9b565b60405180910390f35b610264600480360381019061025f9190611eb6565b610691565b6040516102719190611ceb565b60405180910390f35b610294600480360381019061028f9190611f3f565b6106c0565b6040516102a19190611f7b565b60405180910390f35b6102c460048036038101906102bf9190611f96565b6106e0565b005b6102ce610701565b6040516102db9190611ff2565b60405180910390f35b6102ec61070a565b6040516102f99190611e9b565b60405180910390f35b61031c60048036038101906103179190611f96565b610732565b005b61033860048036038101906103339190611e4c565b6107b5565b6040516103459190611ceb565b60405180910390f35b6103566107ec565b005b610372600480360381019061036d9190611e4c565b610864565b005b61038e6004803603810190610389919061200d565b6108eb565b005b610398610945565b6040516103a59190611ceb565b60405180910390f35b6103c860048036038101906103c3919061203a565b61095c565b6040516103d59190611e9b565b60405180910390f35b6103f860048036038101906103f39190611e4c565b6109a4565b005b6104026109c4565b005b61041e60048036038101906104199190611f96565b610a3c565b60405161042b9190611ceb565b60405180910390f35b61043c610aa7565b6040516104499190611d96565b60405180910390f35b61045a610b39565b6040516104679190611f7b565b60405180910390f35b61048a60048036038101906104859190611e4c565b610b40565b6040516104979190611ceb565b60405180910390f35b6104ba60048036038101906104b59190611e4c565b610bb7565b6040516104c79190611ceb565b60405180910390f35b6104d8610bda565b6040516104e59190611f7b565b60405180910390f35b61050860048036038101906105039190611f96565b610bfe565b005b610524600480360381019061051f9190612067565b610c1f565b6040516105319190611e9b565b60405180910390f35b610542610ca6565b60405161054f9190611f7b565b60405180910390f35b60007f7965db0b000000000000000000000000000000000000000000000000000000007bffffffffffffffffffffffffffffffffffffffffffffffffffffffff1916827bffffffffffffffffffffffffffffffffffffffffffffffffffffffff191614806105cb57506105ca82610cca565b5b9050919050565b6060600380546105e1906120d6565b80601f016020809104026020016040519081016040528092919081815260200182805461060d906120d6565b801561065a5780601f1061062f5761010080835404028352916020019161065a565b820191906000526020600020905b81548152906001019060200180831161063d57829003601f168201915b5050505050905090565b60008061066f610d34565b905061067c818585610d3c565b600191505092915050565b6000600254905090565b60008061069c610d34565b90506106a9858285610f05565b6106b4858585610f91565b60019150509392505050565b600060066000838152602001908152602001600020600101549050919050565b6106e9826106c0565b6106f281611207565b6106fc838361121b565b505050565b60006012905090565b60007f0000000000000000000000000000000000000000000000000000000000000000905090565b61073a610d34565b73ffffffffffffffffffffffffffffffffffffffff168173ffffffffffffffffffffffffffffffffffffffff16146107a7576040517f08c379a000000000000000000000000000000000000000000000000000000000815260040161079e90612179565b60405180910390fd5b6107b182826112fc565b5050565b6000806107c0610d34565b90506107e18185856107d28589610c1f565b6107dc91906121c8565b610d3c565b600191505092915050565b7f65d7a28e3265b37a6474929f336521b332c1681b933f6cb9f3376673440d862a61081681611207565b61081e6113de565b3373ffffffffffffffffffffffffffffffffffffffff167ff38578ed892ce2ce655ca8ae03c73464ad74915a1331a9b4085e637534daeedf60405160405180910390a250565b7f9f2df0fed2c77648de5860a4cc508cd0818c85b8b8a1ab4ceeef8d981c8956a661088e81611207565b6108988383611441565b8273ffffffffffffffffffffffffffffffffffffffff167f3f2c9d57c068687834f0de942a9babb9e5acab57d516d3480a3c16ee165a4273836040516108de9190611e9b565b60405180910390a2505050565b6108f48161144f565b3373ffffffffffffffffffffffffffffffffffffffff167ffd38818f5291bf0bb3a2a48aadc06ba8757865d1dabd804585338aab3009dcb68260405161093a9190611e9b565b60405180910390a250565b6000600560009054906101000a900460ff16905090565b60008060008373ffffffffffffffffffffffffffffffffffffffff1673ffffffffffffffffffffffffffffffffffffffff168152602001908152602001600020549050919050565b6109b6826109b0610d34565b83610f05565b6109c08282611463565b5050565b7f65d7a28e3265b37a6474929f336521b332c1681b933f6cb9f3376673440d862a6109ee81611207565b6109f6611630565b3373ffffffffffffffffffffffffffffffffffffffff167ff017c0de579727a3cd3ee18077ee8b4c43bf21892985952d1d5a0d52f983502d60405160405180910390a250565b60006006600084815260200190815260200160002060000160008373ffffffffffffffffffffffffffffffffffffffff1673ffffffffffffffffffffffffffffffffffffffff16815260200190815260200160002060009054906101000a900460ff16905092915050565b606060048054610ab6906120d6565b80601f0160208091040260200160405190810160405280929190818152602001828054610ae2906120d6565b8015610b2f5780601f10610b0457610100808354040283529160200191610b2f565b820191906000526020600020905b815481529060010190602001808311610b1257829003601f168201915b5050505050905090565b6000801b81565b600080610b4b610d34565b90506000610b598286610c1f565b905083811015610b9e576040517f08c379a0000000000000000000000000000000000000000000000000000000008152600401610b959061226e565b60405180910390fd5b610bab8286868403610d3c565b60019250505092915050565b600080610bc2610d34565b9050610bcf818585610f91565b600191505092915050565b7f9f2df0fed2c77648de5860a4cc508cd0818c85b8b8a1ab4ceeef8d981c8956a681565b610c07826106c0565b610c1081611207565b610c1a83836112fc565b505050565b6000600160008473ffffffffffffffffffffffffffffffffffffffff1673ffffffffffffffffffffffffffffffffffffffff16815260200190815260200160002060008373ffffffffffffffffffffffffffffffffffffffff1673ffffffffffffffffffffffffffffffffffffffff16815260200190815260200160002054905092915050565b7f65d7a28e3265b37a6474929f336521b332c1681b933f6cb9f3376673440d862a81565b60007f01ffc9a7000000000000000000000000000000000000000000000000000000007bffffffffffffffffffffffffffffffffffffffffffffffffffffffff1916827bffffffffffffffffffffffffffffffffffffffffffffffffffffffff1916149050919050565b600033905090565b600073ffffffffffffffffffffffffffffffffffffffff168373ffffffffffffffffffffffffffffffffffffffff1603610dab576040517f08c379a0000000000000000000000000000000000000000000000000000000008152600401610da290612300565b60405180910390fd5b600073ffffffffffffffffffffffffffffffffffffffff168273ffffffffffffffffffffffffffffffffffffffff1603610e1a576040517f08c379a0000000000000000000000000000000000000000000000000000000008152600401610e1190612392565b60405180910390fd5b80600160008573ffffffffffffffffffffffffffffffffffffffff1673ffffffffffffffffffffffffffffffffffffffff16815260200190815260200160002060008473ffffffffffffffffffffffffffffffffffffffff1673ffffffffffffffffffffffffffffffffffffffff168152602001908152602001600020819055508173ffffffffffffffffffffffffffffffffffffffff168373ffffffffffffffffffffffffffffffffffffffff167f8c5be1e5ebec7d5bd14f71427d1e84f3dd0314c0f7b2291e5b200ac8c7c3b92583604051610ef89190611e9b565b60405180910390a3505050565b6000610f118484610c1f565b90507fffffffffffffffffffffffffffffffffffffffffffffffffffffffffffffffff8114610f8b5781811015610f7d576040517f08c379a0000000000000000000000000000000000000000000000000000000008152600401610f74906123fe565b60405180910390fd5b610f8a8484848403610d3c565b5b50505050565b600073ffffffffffffffffffffffffffffffffffffffff168373ffffffffffffffffffffffffffffffffffffffff1603611000576040517f08c379a0000000000000000000000000000000000000000000000000000000008152600401610ff790612490565b60405180910390fd5b600073ffffffffffffffffffffffffffffffffffffffff168273ffffffffffffffffffffffffffffffffffffffff160361106f576040517f08c379a000000000000000000000000000000000000000000000000000000000815260040161106690612522565b60405180910390fd5b61107a838383611693565b60008060008573ffffffffffffffffffffffffffffffffffffffff1673ffffffffffffffffffffffffffffffffffffffff16815260200190815260200160002054905081811015611100576040517f08c379a00000000000000000000000000000000000000000000000000000000081526004016110f7906125b4565b60405180910390fd5b8181036000808673ffffffffffffffffffffffffffffffffffffffff1673ffffffffffffffffffffffffffffffffffffffff16815260200190815260200160002081905550816000808573ffffffffffffffffffffffffffffffffffffffff1673ffffffffffffffffffffffffffffffffffffffff168152602001908152602001600020600082825401925050819055508273ffffffffffffffffffffffffffffffffffffffff168473ffffffffffffffffffffffffffffffffffffffff167fddf252ad1be2c89b69c2b068fc378daa952ba7f163c4a11628f55a4df523b3ef846040516111ee9190611e9b565b60405180910390a36112018484846116a3565b50505050565b61121881611213610d34565b6116a8565b50565b6112258282610a3c565b6112f85760016006600084815260200190815260200160002060000160008373ffffffffffffffffffffffffffffffffffffffff1673ffffffffffffffffffffffffffffffffffffffff16815260200190815260200160002060006101000a81548160ff02191690831515021790555061129d610d34565b73ffffffffffffffffffffffffffffffffffffffff168173ffffffffffffffffffffffffffffffffffffffff16837f2f8788117e7eff1d82e926ec794901d17c78024a50270940304540a733656f0d60405160405180910390a45b5050565b6113068282610a3c565b156113da5760006006600084815260200190815260200160002060000160008373ffffffffffffffffffffffffffffffffffffffff1673ffffffffffffffffffffffffffffffffffffffff16815260200190815260200160002060006101000a81548160ff02191690831515021790555061137f610d34565b73ffffffffffffffffffffffffffffffffffffffff168173ffffffffffffffffffffffffffffffffffffffff16837ff6391f5c32d9c69d2a47ea670b442974b53935d1edc7fd64eb21e047a839171b60405160405180910390a45b5050565b6113e661172d565b6000600560006101000a81548160ff0219169083151502179055507f5db9ee0a495bf2e6ff9c91a7834c1ba4fdd244a5e8aa4e537bd38aeae4b073aa61142a610d34565b60405161143791906125e3565b60405180910390a1565b61144b8282611776565b5050565b61146061145a610d34565b82611463565b50565b600073ffffffffffffffffffffffffffffffffffffffff168273ffffffffffffffffffffffffffffffffffffffff16036114d2576040517f08c379a00000000000000000000000000000000000000000000000000000000081526004016114c990612670565b60405180910390fd5b6114de82600083611693565b60008060008473ffffffffffffffffffffffffffffffffffffffff1673ffffffffffffffffffffffffffffffffffffffff16815260200190815260200160002054905081811015611564576040517f08c379a000000000000000000000000000000000000000000000000000000000815260040161155b90612702565b60405180910390fd5b8181036000808573ffffffffffffffffffffffffffffffffffffffff1673ffffffffffffffffffffffffffffffffffffffff1681526020019081526020016000208190555081600260008282540392505081905550600073ffffffffffffffffffffffffffffffffffffffff168373ffffffffffffffffffffffffffffffffffffffff167fddf252ad1be2c89b69c2b068fc378daa952ba7f163c4a11628f55a4df523b3ef846040516116179190611e9b565b60405180910390a361162b836000846116a3565b505050565b6116386117e0565b6001600560006101000a81548160ff0219169083151502179055507f62e78cea01bee320cd4e420270b5ea74000d11b0c9f74754ebdbfc544b05a25861167c610d34565b60405161168991906125e3565b60405180910390a1565b61169e83838361182a565b505050565b505050565b6116b28282610a3c565b611729576116bf81611882565b6116cd8360001c60206118af565b6040516020016116de9291906127f6565b6040516020818303038152906040526040517f08c379a00000000000000000000000000000000000000000000000000000000081526004016117209190611d96565b60405180910390fd5b5050565b611735610945565b611774576040517f08c379a000000000000000000000000000000000000000000000000000000000815260040161176b9061287c565b60405180910390fd5b565b61177e61070a565b81611787610687565b61179191906121c8565b11156117d2576040517f08c379a00000000000000000000000000000000000000000000000000000000081526004016117c9906128e8565b60405180910390fd5b6117dc8282611aeb565b5050565b6117e8610945565b15611828576040517f08c379a000000000000000000000000000000000000000000000000000000000815260040161181f90612954565b60405180910390fd5b565b611835838383611c41565b61183d610945565b1561187d576040517f08c379a0000000000000000000000000000000000000000000000000000000008152600401611874906129e6565b60405180910390fd5b505050565b60606118a88273ffffffffffffffffffffffffffffffffffffffff16601460ff166118af565b9050919050565b6060600060028360026118c29190612a06565b6118cc91906121c8565b67ffffffffffffffff8111156118e5576118e4612a48565b5b6040519080825280601f01601f1916602001820160405280156119175781602001600182028036833780820191505090505b5090507f30000000000000000000000000000000000000000000000000000000000000008160008151811061194f5761194e612a77565b5b60200101907effffffffffffffffffffffffffffffffffffffffffffffffffffffffffffff1916908160001a9053507f7800000000000000000000000000000000000000000000000000000000000000816001815181106119b3576119b2612a77565b5b60200101907effffffffffffffffffffffffffffffffffffffffffffffffffffffffffffff1916908160001a905350600060018460026119f39190612a06565b6119fd91906121c8565b90505b6001811115611a9d577f3031323334353637383961626364656600000000000000000000000000000000600f861660108110611a3f57611a3e612a77565b5b1a60f81b828281518110611a5657611a55612a77565b5b60200101907effffffffffffffffffffffffffffffffffffffffffffffffffffffffffffff1916908160001a905350600485901c945080611a9690612aa6565b9050611a00565b5060008414611ae1576040517f08c379a0000000000000000000000000000000000000000000000000000000008152600401611ad890612b1b565b60405180910390fd5b8091505092915050565b600073ffffffffffffffffffffffffffffffffffffffff168273ffffffffffffffffffffffffffffffffffffffff1603611b5a576040517f08c379a0000000000000000000000000000000000000000000000000000000008152600401611b5190612b87565b60405180910390fd5b611b6660008383611693565b8060026000828254611b7891906121c8565b92505081905550806000808473ffffffffffffffffffffffffffffffffffffffff1673ffffffffffffffffffffffffffffffffffffffff168152602001908152602001600020600082825401925050819055508173ffffffffffffffffffffffffffffffffffffffff16600073ffffffffffffffffffffffffffffffffffffffff167fddf252ad1be2c89b69c2b068fc378daa952ba7f163c4a11628f55a4df523b3ef83604051611c299190611e9b565b60405180910390a3611c3d600083836116a3565b5050565b505050565b600080fd5b60007fffffffff0000000000000000000000000000000000000000000000000000000082169050919050565b611c8081611c4b565b8114611c8b57600080fd5b50565b600081359050611c9d81611c77565b92915050565b600060208284031215611cb957611cb8611c46565b5b6000611cc784828501611c8e565b91505092915050565b60008115159050919050565b611ce581611cd0565b82525050565b6000602082019050611d006000830184611cdc565b92915050565b600081519050919050565b600082825260208201905092915050565b60005b83811015611d40578082015181840152602081019050611d25565b60008484015250505050565b6000601f19601f8301169050919050565b6000611d6882611d06565b611d728185611d11565b9350611d82818560208601611d22565b611d8b81611d4c565b840191505092915050565b60006020820190508181036000830152611db08184611d5d565b905092915050565b600073ffffffffffffffffffffffffffffffffffffffff82169050919050565b6000611de382611db8565b9050919050565b611df381611dd8565b8114611dfe57600080fd5b50565b600081359050611e1081611dea565b92915050565b6000819050919050565b611e2981611e16565b8114611e3457600080fd5b50565b600081359050611e4681611e20565b92915050565b60008060408385031215611e6357611e62611c46565b5b6000611e7185828601611e01565b9250506020611e8285828601611e37565b9150509250929050565b611e9581611e16565b82525050565b6000602082019050611eb06000830184611e8c565b92915050565b600080600060608486031215611ecf57611ece611c46565b5b6000611edd86828701611e01565b9350506020611eee86828701611e01565b9250506040611eff86828701611e37565b9150509250925092565b6000819050919050565b611f1c81611f09565b8114611f2757600080fd5b50565b600081359050611f3981611f13565b92915050565b600060208284031215611f5557611f54611c46565b5b6000611f6384828501611f2a565b91505092915050565b611f7581611f09565b82525050565b6000602082019050611f906000830184611f6c565b92915050565b60008060408385031215611fad57611fac611c46565b5b6000611fbb85828601611f2a565b9250506020611fcc85828601611e01565b9150509250929050565b600060ff82169050919050565b611fec81611fd6565b82525050565b60006020820190506120076000830184611fe3565b92915050565b60006020828403121561202357612022611c46565b5b600061203184828501611e37565b91505092915050565b6000602082840312156120505761204f611c46565b5b600061205e84828501611e01565b91505092915050565b6000806040838503121561207e5761207d611c46565b5b600061208c85828601611e01565b925050602061209d85828601611e01565b9150509250929050565b7f4e487b7100000000000000000000000000000000000000000000000000000000600052602260045260246000fd5b600060028204905060018216806120ee57607f821691505b602082108103612101576121006120a7565b5b50919050565b7f416363657373436f6e74726f6c3a2063616e206f6e6c792072656e6f756e636560008201527f20726f6c657320666f722073656c660000000000000000000000000000000000602082015250565b6000612163602f83611d11565b915061216e82612107565b604082019050919050565b6000602082019050818103600083015261219281612156565b9050919050565b7f4e487b7100000000000000000000000000000000000000000000000000000000600052601160045260246000fd5b60006121d382611e16565b91506121de83611e16565b92508282019050808211156121f6576121f5612199565b5b92915050565b7f45524332303a2064656372656173656420616c6c6f77616e63652062656c6f7760008201527f207a65726f000000000000000000000000000000000000000000000000000000602082015250565b6000612258602583611d11565b9150612263826121fc565b604082019050919050565b600060208201905081810360008301526122878161224b565b9050919050565b7f45524332303a20617070726f76652066726f6d20746865207a65726f2061646460008201527f7265737300000000000000000000000000000000000000000000000000000000602082015250565b60006122ea602483611d11565b91506122f58261228e565b604082019050919050565b60006020820190508181036000830152612319816122dd565b9050919050565b7f45524332303a20617070726f766520746f20746865207a65726f20616464726560008201527f7373000000000000000000000000000000000000000000000000000000000000602082015250565b600061237c602283611d11565b915061238782612320565b604082019050919050565b600060208201905081810360008301526123ab8161236f565b9050919050565b7f45524332303a20696e73756666696369656e7420616c6c6f77616e6365000000600082015250565b60006123e8601d83611d11565b91506123f3826123b2565b602082019050919050565b60006020820190508181036000830152612417816123db565b9050919050565b7f45524332303a207472616e736665722066726f6d20746865207a65726f20616460008201527f6472657373000000000000000000000000000000000000000000000000000000602082015250565b600061247a602583611d11565b91506124858261241e565b604082019050919050565b600060208201905081810360008301526124a98161246d565b9050919050565b7f45524332303a207472616e7366657220746f20746865207a65726f206164647260008201527f6573730000000000000000000000000000000000000000000000000000000000602082015250565b600061250c602383611d11565b9150612517826124b0565b604082019050919050565b6000602082019050818103600083015261253b816124ff565b9050919050565b7f45524332303a207472616e7366657220616d6f756e742065786365656473206260008201527f616c616e63650000000000000000000000000000000000000000000000000000602082015250565b600061259e602683611d11565b91506125a982612542565b604082019050919050565b600060208201905081810360008301526125cd81612591565b9050919050565b6125dd81611dd8565b82525050565b60006020820190506125f860008301846125d4565b92915050565b7f45524332303a206275726e2066726f6d20746865207a65726f2061646472657360008201527f7300000000000000000000000000000000000000000000000000000000000000602082015250565b600061265a602183611d11565b9150612665826125fe565b604082019050919050565b600060208201905081810360008301526126898161264d565b9050919050565b7f45524332303a206275726e20616d6f756e7420657863656564732062616c616e60008201527f6365000000000000000000000000000000000000000000000000000000000000602082015250565b60006126ec602283611d11565b91506126f782612690565b604082019050919050565b6000602082019050818103600083015261271b816126df565b9050919050565b600081905092915050565b7f416363657373436f6e74726f6c3a206163636f756e7420000000000000000000600082015250565b6000612763601783612722565b915061276e8261272d565b601782019050919050565b600061278482611d06565b61278e8185612722565b935061279e818560208601611d22565b80840191505092915050565b7f206973206d697373696e6720726f6c6520000000000000000000000000000000600082015250565b60006127e0601183612722565b91506127eb826127aa565b601182019050919050565b600061280182612756565b915061280d8285612779565b9150612818826127d3565b91506128248284612779565b91508190509392505050565b7f5061757361626c653a206e6f7420706175736564000000000000000000000000600082015250565b6000612866601483611d11565b915061287182612830565b602082019050919050565b6000602082019050818103600083015261289581612859565b9050919050565b7f45524332304361707065643a2063617020657863656564656400000000000000600082015250565b60006128d2601983611d11565b91506128dd8261289c565b602082019050919050565b60006020820190508181036000830152612901816128c5565b9050919050565b7f5061757361626c653a2070617573656400000000000000000000000000000000600082015250565b600061293e601083611d11565b915061294982612908565b602082019050919050565b6000602082019050818103600083015261296d81612931565b9050919050565b7f45524332305061757361626c653a20746f6b656e207472616e7366657220776860008201527f696c652070617573656400000000000000000000000000000000000000000000602082015250565b60006129d0602a83611d11565b91506129db82612974565b604082019050919050565b600060208201905081810360008301526129ff816129c3565b9050919050565b6000612a1182611e16565b9150612a1c83611e16565b9250828202612a2a81611e16565b91508282048414831517612a4157612a40612199565b5b5092915050565b7f4e487b7100000000000000000000000000000000000000000000000000000000600052604160045260246000fd5b7f4e487b7100000000000000000000000000000000000000000000000000000000600052603260045260246000fd5b6000612ab182611e16565b915060008203612ac457612ac3612199565b5b600182039050919050565b7f537472696e67733a20686578206c656e67746820696e73756666696369656e74600082015250565b6000612b05602083611d11565b9150612b1082612acf565b602082019050919050565b60006020820190508181036000830152612b3481612af8565b9050919050565b7f45524332303a206d696e7420746f20746865207a65726f206164647265737300600082015250565b6000612b71601f83611d11565b9150612b7c82612b3b565b602082019050919050565b60006020820190508181036000830152612ba081612b64565b905091905056fea2646970667358221220db2c35079cef16092bb97937b9131a977fdc0f0a6007df718f74641ee56cc8bd64736f6c63430008130033",
  "linkReferences": {},
  "deployedLinkReferences": {}
}